:100000000C945C000C946E000C946E000C946E00CA
:100010000C946E000C946E000C946E000C946E00A8
:100020000C946E000C946E000C946E000C946E0098
:100030000C946E000C946E000C946E000C946E0088
:100040000C948F000C94D9000C946E000C946E00EC
:100050000C946E000C946E000C946E000C946E0068
:100060000C946E000C946E00000000080002010069
:100070000003040700000000000000000000000072
:10008000250028002B0000000000240027002A0083
:10009000040404040404040402020202020203032E
:1000A0000303030301020408102040800102040836
:1000B000102001020408102011241FBECFEFD8E049
:1000C000DEBFCDBF21E0A0E0B1E001C01D92AC30A9
:1000D000B207E1F70E94F0000C94A0010C9400001C
:1000E00090E0FC01EC55FF4F249180579F4FFC019D
:1000F0008491882399F090E0880F991FFC01EA57BA
:10010000FF4FA591B491FC01E458FF4F8591949164
:100110008FB7F894EC91E22BEC938FBF08951F9268
:100120000F920FB60F9211242F933F938F939F93AB
:10013000AF93BF938091080190910901A0910A01AA
:10014000B0910B013091070123E0230F2D3758F5B3
:100150000196A11DB11D2093070180930801909382
:100160000901A0930A01B0930B01809103019091C2
:100170000401A0910501B09106010196A11DB11DD8
:100180008093030190930401A0930501B0930601AD
:10019000BF91AF919F918F913F912F910F900FBE83
:1001A0000F901F90189526E8230F0296A11DB11DF0
:1001B000D2CF1F920F920FB60F9211248F939F935D
:1001C0008EB590E0909301018093000181E08093CF
:1001D00002019F918F910F900FBE0F901F90189565
:1001E000789484B5826084BD84B5816084BD85B512
:1001F000826085BD85B5816085BD80916E0081601E
:1002000080936E00109281008091810082608093C3
:1002100081008091810081608093810080918000C5
:100220008160809380008091B10084608093B100F0
:100230008091B00081608093B00080917A008460EA
:1002400080937A0080917A00826080937A00809116
:100250007A00816080937A0080917A008068809330
:100260007A001092C1008CE00E9470008CB580640E
:100270008CBD109202018CB580688CBD87E00E9415
:1002800070000FE610E02BEAE22E20E0F22E37E9B4
:10029000C32E30E0D32EC0E0D0E08091020188234D
:1002A00031F110920201F8019491F7018491F60165
:1002B00034913323E1F020910001992339F09330F8
:1002C00029F1D0F4913041F1923051F1E32FF0E077
:1002D000EE0FFF1FE458FF4FA591B4919FB7F8941C
:1002E00021112BC02C91809582238C939FBF209746
:1002F000A1F20E940000D1CF9730A9F09830C9F048
:10030000943021F7909180009F7D03C090918000F0
:100310009F7790938000DACF94B59F7794BDD6CF26
:1003200094B59F7DFBCF9091B0009F779093B000E4
:10033000CDCF9091B0009F7DF9CF2C91822BD5CF5E
:04034000F894FFCF5F
:00000001FF
