:020000040000FA
:100000000C9468000C9490000C9490000C94900058
:100010000C9490000C9490000C9490000C94900020
:100020000C9490000C9490000C9490000C94900010
:100030000C9490000C9490000C9490000C94900000
:100040000C94550B0C9490000C94C50B0C949F0BC6
:100050000C9490000C9490000C9490000C949000E0
:100060000C9490000C94900063825363000108008C
:10007000060400014500008200004000200000004E
:1000800000240027002A0000000000250028002B83
:100090000004040404040404040202020202020331
:1000A000030303030301020408102040800102043B
:1000B00008102001020408102000000008000201BE
:1000C0000000030407000000000000000000300FE3
:1000D00011241FBECFEFD8E0DEBFCDBF12E0A0E0FD
:1000E000B1E0E0EBFFE102C005900D92A637B10749
:1000F000D9F726E0A6E7B2E001C01D92A433B2070B
:10010000E1F710E0C8E6D0E004C02197FE010E94AC
:10011000930FC736D107C9F70E94F70B0C94D60F7F
:100120000C940000CF93DF93209193052223C1F01C
:10013000FC0120812223A1F0C3E9D5E0AFE8B5E0BE
:100140009C012C5F3F4F899141919D918427892388
:1001500039F4E217F307B9F781E0DF91CF91089501
:1001600080E0FBCF90E0FC01E754FF4F2491FC01BD
:10017000EB55FF4F3491FC01EF56FF4FE491EE2316
:10018000C9F0222339F0233001F1A8F4213019F10C
:10019000223029F1F0E0EE0FFF1FE957FF4FA59144
:1001A000B4918FB7F894EC91611126C030953E233D
:1001B0003C938FBF08952730A9F02830C9F0243030
:1001C00049F7809180008F7D03C0809180008F77F8
:1001D00080938000DFCF84B58F7784BDDBCF84B57B
:1001E0008F7DFBCF8091B0008F778093B000D2CF0E
:1001F0008091B0008F7DF9CF3E2BDACFCF93DF9384
:1002000090E0FC01EB55FF4F24918F569F4FFC016E
:1002100084918823D1F090E0880F991FFC01E35866
:10022000FF4FA591B491FC01E957FF4FC591D491BF
:1002300061110EC09FB7F8948C91E22FE0958E2348
:100240008C932881E223E8839FBFDF91CF910895AB
:100250008FB7F894EC91E22BEC938FBFF6CF3FB7BA
:10026000F89480918B0590918C05A0918D05B091AB
:100270008E0526B5A89B05C02F3F19F00196A11D3C
:10028000B11D3FBFBA2FA92F982F8827BC01CD01E0
:10029000620F711D811D911D42E0660F771F881F3F
:1002A000991F4A95D1F708952FB7F8946091870563
:1002B000709188058091890590918A052FBF0895D6
:1002C000AF92BF92CF92DF92EF92FF920F931F9364
:1002D000CF93DF936C017B018B01040F151FEB01A2
:1002E0005E01AE18BF08C017D10759F06991D60159
:1002F000ED91FC910190F081E02DC6010995892BCB
:1003000079F7C501DF91CF911F910F91FF90EF9089
:10031000DF90CF90BF90AF900895FC01538D448D36
:10032000252F30E0842F90E0821B930B541710F0A0
:10033000CF96089501970895FC01918D828D9817AD
:1003400061F0A28DAE0FBF2FB11D5D968C91928D85
:100350009F5F9F73928F90E008958FEF9FEF0895B6
:10036000FC01918D828D981731F0828DE80FF11D7F
:10037000858D90E008958FEF9FEF0895FC01918D9A
:10038000228D892F90E0805C9F4F821B91098F7393
:100390009927089587E995E00E94BE0121E0892B05
:1003A00009F420E0822F089580E090E0892B29F065
:1003B0000E94CA0181110C9400000895FC01A48DD3
:1003C000A80FB92FB11DA35ABF4F2C91848D90E077
:1003D00001968F739927848FA689B7892C93A0895A
:1003E000B1898C91837080648C93938D848D9813E4
:1003F00006C00288F389E02D80818F7D8083089577
:10040000EF92FF920F931F93CF93DF93EC0181E064
:10041000888F9B8D8C8D98131AC0E889F98980810B
:1004200085FF15C09FB7F894EE89FF896083E8893E
:10043000F98980818370806480839FBF81E090E030
:10044000DF91CF911F910F91FF90EF900895F62EBD
:100450000B8D10E00F5F1F4F0F731127E02E8C8D57
:100460008E110CC00FB607FCFACFE889F98980819C
:1004700085FFF5CFCE010E94DE01F1CFEB8DEC0FB1
:10048000FD2FF11DE35AFF4FF0829FB7F8940B8FB9
:10049000EA89FB8980818062CFCFCF93DF93EC0123
:1004A000888D8823B9F0AA89BB89E889F9898C915C
:1004B00085FD03C0808186FD0DC00FB607FCF7CF18
:1004C0008C9185FFF2CF808185FFEDCFCE010E9418
:1004D000DE01E9CFDF91CF9108958091DA0290910A
:1004E000DB0298278927982744972091F80230E06B
:1004F00044E0359527954A95E1F7220F331F220FE7
:10050000331F821B930B97FF02C090E080E0089599
:100510002091EE023091EC023093EE022093EC0237
:100520002091EF023091ED023093EF022093ED0223
:10053000EAECF2E021A5820F911D25A585A766238F
:1005400081F021A7892F9927319722E0E63CF20715
:1005500089F71092FC021092FD0280E58093F80268
:10056000089511A6EFCF0F931F93CF93DF9370E001
:1005700066537D4F8A01075F1F4F213029F02230DB
:1005800031F48A010250110930E020E003C000E09C
:1005900010E09801EB01FA01E230F10558F0A99161
:1005A000B991BA27AB27BA270A0F1B1F211D311D8E
:1005B0003297F2CFFA01EE7F6E0F7F1F4E175F0763
:1005C00069F0FB01408150E070E060E0762F652F1C
:1005D000542F4427040F151F261F371FA901662714
:1005E0007727411551056105710519F02227332739
:1005F000F1CF00951095E82FF0E0E653FD4F108302
:100600000183DF91CF911F910F910895EAECF2E001
:10061000108E118E80E4848B158A868B20E044E155
:1006200050E06EE088E10C94B3028EBD0DB407FE7D
:10063000FDCF089561E08091A2020E94B2007894FB
:100640000895F89460E08091A2020C94B2000F9398
:100650001F93CF93DF93EC018B010E94210320971E
:10066000B9F08AE30E9415031EBCF801CE01019780
:1006700039F00DB407FEFDCF2EB51EBC2193F7CF88
:100680002197C00FD11F0DB407FEFDCF8EB5888313
:10069000DF91CF911F910F910C941A031F93CF9369
:1006A000DF93182FC62FD42F0E9421038C2F8F7118
:1006B000812B0E9415038D2F0E941503DF91CF918E
:1006C0001F910C941A03CF93C82FC07680917802A3
:1006D0008C1799F043E06FE180EA0E944E03C093CB
:1006E00078024C2F50E085E0559547958A95E1F7C3
:1006F0006FE180E8CF910C944E03CF910895CF9392
:10070000DF93C82FD62F0E9463034D2F6C2F80E4F8
:10071000DF91CF910C944E03CF93DF93C82FD72F47
:100720000E947F036D2F81E08C0FDF91CF910C949D
:100730007F03CF93C82F0E9463030E9421038C2F55
:100740008F710E94150380E00E941503C7FF03C04C
:1007500080E00E941503CEB50E941A038C2FCF9122
:10076000089561E184ED0E947F0361E082ED0E94C3
:100770007F038AEE0E94990380FDFBCF60E082ED4B
:100780000E947F0389ED0E94990390E008950F93E2
:100790001F93CF93DF9300D000D000D0CDB7DEB74A
:1007A00080917B02882379F06091790270917A02BE
:1007B0006115710509F053C06FEF7BE08CE00E947A
:1007C0008C0310927B0289E30E94990310E000E001
:1007D0008823C9F16091790270917A0280E00E94C9
:1007E0008C03BE016F5F7F4F86E090E00E9427037D
:1007F00089819A8190937A02809379028D819E817A
:100800008C010078112787FF12C08B819C8104978F
:100810000091A3021091A4020150110980179107C1
:1008200008F48C016AEC72E0C8010E942703F80109
:10083000E653FD4F108281E080937B0240E46EE13D
:1008400080E80E944E03C80126960FB6F894DEBFDA
:100850000FBECDBFDF91CF911F910F9108956150D1
:100860007109ACCFCF93DF93EC0140E86FE180E8F2
:100870000E944E0340E86FE180EA0E944E034AE086
:100880006CE180EA0E944E0360E07CE082E00E941E
:100890008C03BE01745F86E00E948C0340E060E040
:1008A0008AE70E944E030E9421032097B1F08AE755
:1008B0000E9415038091CA028EBDEBECF2E0C65394
:1008C000DD4FEC17FD0731F081910DB407FEFDCF30
:1008D0008EBDF7CF0DB407FEFDCF0E941A0348E08E
:1008E0006FE180E80E944E03D0E0C0E08CE10E94FE
:1008F00099038A7029F42196C83E83E0D807B1F79E
:100900008CE10E94990381FD03C0C83ED34039F4B5
:1009100048E06FE180EADF91CF910C944E03DF91C4
:10092000CF9108950F931F93CF93DF93EC010AECBF
:1009300012E04C96F801908B818B0E940603CE0149
:100940000896F80196A387A3AE01405F5F4F21E0B0
:100950006AE188E20E94B302CE018A96DF91CF91CC
:100960001F910F910C9432040F931F93CF93DF9339
:100970008C018896CAECD2E0988B898B0E94060382
:100980001AAA1BAAA801445E5F4F22E06AE182E333
:100990000E94B302C801C696DF91CF911F910F91BB
:1009A0000C943204CF93DF93EB01682F84ED0E9407
:1009B0007F03BE0186ED0E948C038AEE0E9499039C
:1009C00080FDFBCFDF91CF910895CF92DF92EF9220
:1009D000FF920F931F938634910568F12091ED02E9
:1009E000233449F5C090F802D090F902E090FA0261
:1009F000F090FB020091810210918202209183020B
:100A000030918402C016D106E206F306A1F4E4EEAA
:100A1000F3E086539D4F9F012E5F3F4F41815081F0
:100A2000553319F45281651771F0F901E40FF11D86
:100A3000E817F90780F380E01F910F91FF90EF9086
:100A4000DF90CF90089581E0F7CFE0917602F091AA
:100A500077029F012F5F3F4F3093770220937602FA
:100A600080830895FF920F931F93CF93DF93162FE8
:100A7000F42E052F0E942505812F0E942505CF2DDC
:100A8000D02F115020F089910E942505FACFDF91D7
:100A9000CF911F910F91FF900895FC0101900020CC
:100AA000E9F73197AF01481B590BBC0187E995E085
:100AB0000C946001CF93DF930E944D05EC018CE410
:100AC00091E00E944D058C0F9D1FDF91CF910895FD
:100AD0008F929F92AF92BF92CF92DF92EF92FF924E
:100AE0001F93CF93DF93CDB7DEB7A1970FB6F894DE
:100AF000DEBF0FBECDBFD62E172F0E944D05ED2CA9
:100B0000F12E10E08AE0882E912CA12CB12CF70157
:100B100021917F0130E050E040E019A26E01F1E246
:100B2000CF0ED11CCA01B901A50194010E94660F24
:100B3000605DF60162936F01211531054105510594
:100B400089F7309719F0CF010E944D05133029F035
:100B50006EE287E995E00E9400021F5F1430B9F64B
:100B60008CE491E00E944D05A1960FB6F894DEBF8B
:100B70000FBECDBFDF91CF911F91FF90EF90DF901F
:100B8000CF90BF90AF909F908F900895DC0196E03A
:100B9000FB0101900D929A95E1F70895BC018AEC52
:100BA00092E00E94C6056CEA72E080ED92E00C943F
:100BB000C605DC0194E0FB0101900D929A95E1F7E6
:100BC000089580ED92E00E94CE0564EE72E088EE1A
:100BD00092E00E94D90563E975E084EE92E00E94FC
:100BE000D9050C940603262F20612093F902643066
:100BF00021F0009711F481E090E061E00E9488020A
:100C00001092DA0288E28093DB020E94E10584E020
:100C10008093FA021092FB0222E04CE150E06AE17C
:100C200082E30E94B30286E390E00C943204CF93F7
:100C3000DF93EB010E94CE05BE0188EE92E00E9498
:100C4000D90563E975E084EE92E0DF91CF910C94D1
:100C5000D905CF93DF93EB0144E050E0BC0186EE71
:100C600092E00E94A80F892B49F460EE72E0CE0159
:100C70000E94C60581E0DF91CF91089580E0FBCF0F
:100C80000F931F93CF938C0184E391E00E94CE05D4
:100C9000EAECF2E088E08487C6E0C58748E050E0EF
:100CA0006CE670E088ED92E00E945D0FEAEEF2E003
:100CB000DF011D92CA95E9F76CEA72E080EE92E0DE
:100CC0000E94C605B80180EF92E00E94D90563E951
:100CD00075E086EE92E00E94D9058AE290E0CF911D
:100CE0001F910F910C943204FF920F931F93CF9397
:100CF000DF93182F092FEB01F42ECB010E949200F5
:100D0000BE01882309F446C082E992E00E941706DA
:100D10008881807F803E91F088819981AA81BB8102
:100D20008F3F9F4FAF4FBF4F49F044E050E0BE01AF
:100D300082EB92E00E94A80F892B31F464E371E00A
:100D40008AEC92E00E94C60588E08093D602109259
:100D5000D70249E050E064E770E088ED92E00E943D
:100D60005D0F1092DA0281E18093E1021092EE02AF
:100D7000F092EF020093EC021093ED021092F00259
:100D80001092F2021092F302DF91CF911F910F9116
:100D9000FF90089588E992E0B9CFEF92FF920F9308
:100DA0001F93CF938C01EAECF2E086E191E0DF0142
:100DB0009C011D9221503040E1F78091910264E343
:100DC00071E0833011F46CE772E043E450E084E4B6
:100DD00090E00E94740664E371E08AEC92E00E9465
:100DE000C60581E08093F4028093F50286E080934B
:100DF000F6028091810290918202A0918302B091CB
:100E000084028093F8029093F902A093FA02B093BF
:100E1000FB02C0919102C33031F463E975E080E0D8
:100E200093E00E94D9056CEA72E080E193E00E94B1
:100E3000C60580EE93E09093770280937602E8E611
:100E4000F0E084910E942505E9E6F0E084910E949B
:100E50002505EAE6F0E084910E942505EBE6F0E046
:100E600084910E94250585E30E94250581E00E946A
:100E7000250583E0C11101C081E00E9425058DE3B5
:100E80000E94250587E00E94250581E00E94250536
:100E90008CEAE82E82E0F82EC7E0C15031F0D7018D
:100EA0008D917D010E942505F8CF80910001882356
:100EB00071F060E071E0FB0101900020E9F7BF01F3
:100EC0006150714040E051E08CE00E943205011514
:100ED000110559F0A80164E082E30E9432054CE755
:100EE00052E064E086E30E94320587E30E94250514
:100EF00083E00E94250581E00E94250583E00E9491
:100F0000250586E00E9425058FEF0E94250580912A
:100F1000760290917702845F9240CF911F910F915A
:100F2000FF90EF900C9492048F929F92AF92BF9299
:100F3000CF92DF92EF92FF920F931F93CF93DF93A5
:100F400000D000D0CDB7DEB77C018091B8028823F5
:100F500069F080919102823009F4D4C008F0CCC0CD
:100F6000882309F457C1813009F473C1E114F104F5
:100F700009F00EC28091BE02857099F08091B60290
:100F80009091B702892B69F40E94B10382FF09C0D6
:100F900084EC92E00E9440068091BE0288608093BB
:100FA000BE028091B6029091B70201969093B7026B
:100FB0008093B6028091A102813009F06EC08091C9
:100FC000BE0281FF6AC082E08093A102809121016C
:100FD0008F5F80932101182F1F718AEB92E00E948E
:100FE00092006AEB72E0882309F4BFC182E992E0C3
:100FF0000E94170608E00093D6021092D70249E03B
:1010000050E064E770E088ED92E00E945D0F8CE2B2
:101010008093DB0286E08093E1020E940603109237
:10102000EE021092EF028BE08093EC021093ED023F
:10103000E0EFF2E0DF011D920A95E9F780912001CF
:101040008093F2028D5F8093200180E68093F80206
:1010500082E08093F90293E09093FA021092FB02EF
:101060001092FC021092FD021092FE021092FF02FA
:101070008093000394E0909301038093020386E23F
:101080008093030322E040E250E06AE182E30E94A1
:10109000B3028AE390E00E94320480EC92E00E9466
:1010A0009200882379F08091BF0281110BC080915A
:1010B000A002811107C080EC92E00E94400681E00E
:1010C0008093A0028AEB92E00E949200811150C1AD
:1010D00010E000E0C8010F900F900F900F90DF918B
:1010E000CF911F910F91FF90EF90DF90CF90BF9025
:1010F000AF909F908F900895833009F456C084304C
:1011000009F034CF65E0C7010E94E504882309F4A3
:10111000C9C080918002811108C088E30E949903B0
:10112000682F6E7F88E30E947F0364E073E083E9A9
:1011300095E00E94D905E4EEF3E0C70186539D4F88
:101140006C018F010E5F1F4FB1808081863009F4E2
:10115000FBC008F0BEC0813009F4ECC0833009F454
:10116000EFC0F801EB0DF11DEC15FD0550F30E94E9
:1011700054016093890270938A0280938B0290934A
:101180008C028091C402882361F01092B702109201
:10119000B60281E08093BE0264EC72E0CB010E9453
:1011A000D90583E080939102E1CE80908D029090EA
:1011B0008E02A0908F02B09090022FEF82169206BE
:1011C000A206B20609F4D2CE0E945401009189020F
:1011D00010918A0220918B0230918C02601B710B5E
:1011E000820B930B681579058A059B0508F4BECE22
:1011F00083E995E00E94CD0684E0809391020E94ED
:1012000054016093850270938602809387029093C5
:101210008802ACCE0E9454016093810270938202D6
:101220008093830290938402E3E9F5E084E0DF0198
:101230001D928A95E9F790E080E00E94CD0688E350
:101240000E949903682F616088E30E947F0381E018
:10125000D4CF62E0C7010E94E504882319F164E05D
:1012600073E0CE0101960E94D905E4EEF3E0C701D8
:1012700086539D4FBF016E5F7F4F21813081363392
:1012800051F48CE792E00E94D905CE0101960E94AC
:10129000CD0682E0B2CFFB01E20FF11DE817F9079E
:1012A00048F3F3CF0E945401009185021091860209
:1012B0002091870230918802601B710B820B930B87
:1012C000613177428105910508F450CE1092910268
:1012D0004DCE8A3331F08F3F09F449CF833309F083
:1012E00040CF10928D0210928E0210928F021092B7
:1012F0009002F801C801049620E030E0A901619154
:10130000542F432F322F2227260F311D411D511DEF
:10131000E817F907A1F72F3F9FEF3907490759074A
:10132000B9F420938D0230938E0240938F02509334
:10133000900217CFB8018FE895E00E94D90511CF30
:10134000B80184EC92E0F9CFB80180EC92E0F5CFDF
:10135000A8EEB3E00E94880F60938D0270938E0216
:1013600080938F0290939002FCCE88E992E040CE69
:1013700080919F028111ACCE80919E028111A8CEF6
:101380008AEB92E00E94400681E080939E02A0CE0C
:10139000B9E2EB16F10408F49BCE8091D6028830B6
:1013A00009F096CE8091D702863009F035C144E02D
:1013B00050E063E975E080EF92E00E94A80F892B6E
:1013C00009F086CE8091DF02813029F580ED92E030
:1013D0000E94CE051092DE0282E08093DF0260EE72
:1013E00072E08AEE92E00E94C6056CEA72E080EE3E
:1013F00092E00E94C60566EE72E080EF92E00E94E5
:10140000D90563E975E086EE92E00E94D9058AE28B
:1014100090E00E9432048091BE0283FF0DC01091C3
:10142000DF02123049F468E972E084EC92E00E9435
:10143000290681111093BE028091BF02811111C053
:101440008091A002882369F062E972E080EC92E06A
:101450000E942906882329F081E08093BF02109220
:10146000A00280919F02811133CE80919E02882339
:1014700009F42ECE62E972E08AEB92E00E9429061E
:10148000882309F425CE81E080939F0210929E026A
:101490001FCE26E3E216F10408F41ACE863009F0D6
:1014A00017CE8091EE028B3009F04CC044E050E042
:1014B0006AEB72E084EE92E00E94A80F892B09F09B
:1014C00007CE1091F90285E012FD34C00E946D0232
:1014D0002091A102223009F5212F207112711231C1
:1014E00081F460E090E080E00E94F30588E1809361
:1014F000F90283E08093A10290E080E00E94B404AE
:10150000E7CD31E03093A1020196222311F090E063
:1015100080E064E00E94F305DBCD253009F4D8CDEE
:1015200010FF0BC0233009F4D3CD69E001960E946F
:10153000F30586E08093A102CBCD009709F4C8CDD6
:1015400060E0E8CF8111C4CD8091EF02803509F0D1
:10155000BFCDD090F902D1FE39C01092DA028CE2F0
:101560008093DB020E94E10582E18093F90260E052
:1015700081E090E00E9488021092F0021092F10245
:10158000809120018093F2021092F3028D5F80938C
:10159000200182E08093000384E08093010385E0D2
:1015A000809302031092030390E69093F8028093D5
:1015B000FA0288E78093FB0222E040E250E06AE111
:1015C00082E30E94B3028AE390E06CC0D4FE80CD37
:1015D0000E946D028C019093C9028093C802892BEE
:1015E00099F00091F80210E084E0159507958A952E
:1015F000E1F7000F111F000F111F0E5D1F4FE016C6
:10160000F10608F067CD64CDD0FE62CD60E090E0D9
:1016100080E00E94F3055ECD99E2E916F10409F439
:1016200057CD811155CD8091D802853409F050CD28
:1016300044E050E063E975E088EE92E00E94A80F74
:10164000892BA9F044E050E062EB72E088EE92E072
:101650000E94A80F892B59F044E050E064E371E048
:1016600088EE92E00E94A80F892B09F031CD80917D
:10167000E102813009F00DCF8091EC02883009F051
:1016800027CD0E94E1051092EC028091EE02883F86
:1016900028F09091EF029F5F9093EF02885F809314
:1016A000EE02C7010E94320413CD1F920F920FB6B3
:1016B0000F9211242F933F938F939F93AF93BF93D8
:1016C0008091870590918805A0918905B0918A0540
:1016D0003091860523E0230F2D3758F50196A11D83
:1016E000B11D209386058093870590938805A0936C
:1016F0008905B0938A0580918B0590918C05A09106
:101700008D05B0918E050196A11DB11D80938B05AD
:1017100090938C05A0938D05B0938E05BF91AF91EA
:101720009F918F913F912F910F900FBE0F901F901F
:10173000189526E8230F0296A11DB11DD2CF1F9246
:101740000F920FB60F9211242F933F934F935F93F5
:101750006F937F938F939F93AF93BF93EF93FF9379
:1017600087E995E00E94DE01FF91EF91BF91AF9173
:101770009F918F917F916F915F914F913F912F91A9
:101780000F900FBE0F901F9018951F920F920FB6DB
:101790000F9211242F938F939F93EF93FF93E091D8
:1017A000A705F091A8058081E091AD05F091AE0507
:1017B00082FD1BC090818091B0058F5F8F73209157
:1017C000B105821741F0E091B005F0E0E956FA4F1B
:1017D000958F8093B005FF91EF919F918F912F91FD
:1017E0000F900FBE0F901F9018958081F4CFCF936C
:1017F000DF93CDB7DEB7C659D1090FB6F894DEBF77
:101800000FBECDBF789484B5826084BD84B58160FD
:1018100084BD85B5826085BD85B5816085BD8091BB
:101820006E00816080936E00109281008091810033
:10183000826080938100809181008160809381002B
:10184000809180008160809380008091B1008460ED
:101850008093B1008091B00081608093B00080914E
:101860007A00846080937A0080917A00826080930D
:101870007A0080917A00816080937A0080917A006A
:10188000806880937A001092C100E091A705F091E2
:10189000A80582E08083E091A305F091A405108261
:1018A000E091A505F091A6058FEC80831092AF051D
:1018B000E091AB05F091AC0586E08083E091A9054D
:1018C000F091AA05808180618083E091A905F09163
:1018D000AA05808188608083E091A905F091AA051E
:1018E000808180688083E091A905F091AA058081BC
:1018F0008F7D80838AE591E00E945A051092B8029C
:1019000087E390E0C12CD12C7601C3940097C1F0FD
:10191000FC0143E0F595E7954A95E1F7EB55FD4F5E
:10192000282F2770B701A60104C0440F551F661F5A
:10193000771F2A95D2F72081242B20830197E6CFA9
:101940006EE271E08CEA92E00E94C6058CEB92E0B8
:101950009093A4028093A3020CB406FC25C061E01E
:101960008AE00E94FE0061E08AE00E94B20061E02D
:101970008BE00E94FE0061E08DE00E94FE0060E0CE
:101980008CE00E94FE0061E08BE00E94B20060E00B
:101990008BE00E94B20060E08DE00E94B20080E522
:1019A0008CBD8DB581608DBD8AE08093A20261E01F
:1019B0000E94FE000E941A034FEF60E08FEF0E942A
:1019C0004E030E942F016B017C0132E0832E912C8B
:1019D000A12CB12C0E942F016C197D098E099F0941
:1019E000683E734081059105A8F328EEC20E23E0FE
:1019F000D21EE11CF11C8A9489288A288B2829F0A0
:101A0000812C912C54018394E5CF0E9421038DE118
:101A10000E94150380E00E9415031EB50E941A0360
:101A2000112399F370E060E088E00E948C0370E07D
:101A300060E08CE00E948C036FEF7BE08AE00E9404
:101A40008C0360E07CE084E00E948C036FEF71E126
:101A500086E00E948C0366E774E084E10E94D20471
:101A600061EB88E30E947F036FE370E388E20E94EA
:101A70008C0369EF77EF80E30E948C0361E080ECD8
:101A80000E947F0342E362EC80E80E944E0362E121
:101A90007CE086EC0E948C0362E184EC0E947F0370
:101AA0006CED75E08AEC0E948C036091AC0284EED0
:101AB0000E947F036091AD0285EE0E947F036091DA
:101AC000AE0282EE0E947F036091AF0283EE0E941D
:101AD0007F036091B00280EE0E947F036091B102AB
:101AE00081EE0E947F0360E071E080E10E94D204F9
:101AF0008FE10E94630340EC6BE180E80E944E039B
:101B000044E06FE180E80E944E0382E70E9499035F
:101B1000863008F08F5F811104C086E691E00E9454
:101B20005A051092B8026AE271E083E995E00E94DA
:101B3000D9051092B7021092B60281E08093BE02DE
:101B400066E271E084EC92E00E94D90562E271E005
:101B500080EC92E00E94D905E3E9F5E02FE835E05A
:101B600062EB72E047E955E09191D9018D919D01B9
:101B70008095892BDB018D93BD014E175F07A1F77F
:101B800063E975E08BE891E00E94680564EC72E01F
:101B900080E991E00E94680560EC72E085E991E0DF
:101BA0000E9468050E9454018B010E94B10382FFCC
:101BB0001AC0FF24F39480EC92E00E9492008823E4
:101BC00009F46DC08091BF028F2509F46DC00E9499
:101BD000C7030E9494070E945401601B710B60337D
:101BE000754748F307C00E945401601B710B6033B6
:101BF0007547D8F285ED91E00E945A0580E0E82E05
:101C000080E0F82E99E1D92E0E94C7030E94940724
:101C10000E94C7038C010E949407012BA1F1009739
:101C200091F18C0106531D4F6BE971E0C8010E94D0
:101C3000BC0F892B09F405C161E08DE00E94B20060
:101C400088EA91E00E945A0586E9E0EEF1E0DE01C3
:101C5000119601900D928A95E1F786E9FE01319681
:101C6000AAECB2E001900D928A95E1F760E08091D4
:101C7000C8029091C9020E94F305D092F90285E949
:101C800090E00E94B404E114F10409F4BDCF0E9475
:101C9000CA01882309F4B8CF0E940000B5CF809113
:101CA000BE028695817090CFEAEBF2E084E0DF011E
:101CB0001D928A95E9F78091B90211E0180F1093EF
:101CC000B9028091C002811108C044E050E068E090
:101CD00070E080EC92E00E94B50F812F90E045E328
:101CE00050E060EC72E0906E0E947406E4EFF2E067
:101CF0008CE0DF011D928A95E9F7A0E0B3E06FE484
:101D000071E080E0FB0124916F5F7F4F2E3249F03C
:101D1000222339F08F5FAD01480F511DFA01208356
:101D2000F1CF8C9390E00196A80FB91F2111E9CF54
:101D30001C9211961C92119781E012968C93129727
:101D400013961C92139714968C9314972AEC32E0F6
:101D5000A21BA552A093F4029091B9029093F502B0
:101D60008093F6028093F9028A2F90E00E949204F9
:101D70000E9454018B018091BA0281113FCF0E94D1
:101D80005401601B710B6033754708F033CF0E941C
:101D9000C7037C01009779F30E949407892B59F7B8
:101DA00026E4E216F10438F38091ED02853319F749
:101DB0008091EE02803EF9F68091EF029091B90297
:101DC0008913D9CF9091F5028913D5CF8091F7026D
:101DD0008F7009F00FCFE091F402F0E0EC50FD4F6E
:101DE000970126533D4F8081807CDF01129681113F
:101DF00009C0DF011196A217B30720F48181811178
:101E000019C01196CD010E962817390708F4B3CFE3
:101E10001996EC91199711968C911197813061F474
:101E2000E43051F4BD01665F7F4F8AEB92E00E947F
:101E3000D905A1CFFD01DDCFF0E03A96EA0FFB1FF7
:101E4000D2CF67EB71E0C8010E94BC0F892B09F467
:101E5000FBCE60E08DE00E94B20085EC91E0F2CE16
:101E6000E7E9F5E01382128288EE93E0A0E0B0E0AB
:101E700084839583A683B7838EE391E091838083E7
:101E800085EC90E09587848784EC90E0978786873F
:101E900080EC90E0918B808B81EC90E0938B828B37
:101EA00082EC90E0958B848B86EC90E0978B868B10
:101EB000118E128E138E148E0895FB01DC0102C068
:101EC00005900D9241505040D8F70895A1E21A2E86
:101ED000AA1BBB1BFD010DC0AA1FBB1FEE1FFF1FCE
:101EE000A217B307E407F50720F0A21BB30BE40B1E
:101EF000F50B661F771F881F991F1A9469F7609565
:101F00007095809590959B01AC01BD01CF0108951E
:101F10000E94990FA59F900DB49F900DA49F800DD6
:101F2000911D11240895EE0FFF1F0590F491E02DEF
:101F30000994A29FB001B39FC001A39F700D811DA2
:101F40001124911DB29F700D811D1124911D0895C2
:101F5000FB01DC0104C08D910190801921F44150F6
:101F60005040C8F7881B990B0895DC0101C06D93A0
:101F700041505040E0F70895FB0151915523A9F0DD
:101F8000BF01DC014D9145174111E1F759F4CD0135
:101F90000190002049F04D9140154111C9F3FB011A
:101FA0004111EFCF81E090E001970895F894FFCFC1
:101FB00041726475696E6F2D454E4332386A363012
:101FC0002D30300000000000000000000000000084
:101FD0000A01C0A80101C0A80301C0A801C8DEAD64
:101FE000BEEFFEEDFFFFFFFFFFFF0000000000025D
:101FF00060018D014D02BE019C01B0010D0A006718
:102000006F6F676C652E636F6D000A5B6D7953654A
:10201000727665725D004661696C656420746F203C
:102020006163636573732045746865726E657420BF
:10203000636F6E74726F6C6C65720049503A200069
:1020400047573A2000444E533A2000474554202F2A
:102050003F6C65643D6F6E004C4544207475726E34
:102060006564204F4E2E00474554202F3F6C656419
:102070003D6F6666004C4544207475726E65642041
:102080004F46462E00444E53206661696C656400DD
:10209000485454502F312E3120323030204F4B0DC8
:1020A0000A436F6E74656E742D547970653A2074AE
:1020B0006578742F68746D6C0D0A0D0A3C68313EAA
:1020C00041726475696E6F20576562205365727640
:1020D00065723C2F68313E3C6120687265663D2226
:1020E0002F3F6C65643D6F6E223E5475726E204FBB
:1020F0006E204C45443C2F613E3C62723E3C612068
:10210000687265663D222F3F6C65643D6F6666228E
:102110003E5475726E204F6666204C45443C2F61DC
:062120003E3C62723E002D
:107E0000112484B714BE81FFF0D085E080938100F7
:107E100082E08093C00088E18093C10086E0809377
:107E2000C20080E18093C4008EE0C9D0259A86E02C
:107E300020E33CEF91E0309385002093840096BBD3
:107E4000B09BFECF1D9AA8958150A9F7CC24DD24C4
:107E500088248394B5E0AB2EA1E19A2EF3E0BF2EE7
:107E6000A2D0813461F49FD0082FAFD0023811F036
:107E7000013811F484E001C083E08DD089C08234E0
:107E800011F484E103C0853419F485E0A6D080C0E4
:107E9000853579F488D0E82EFF2485D0082F10E0AE
:107EA000102F00270E291F29000F111F8ED06801E7
:107EB0006FC0863521F484E090D080E0DECF843638
:107EC00009F040C070D06FD0082F6DD080E0C81688
:107ED00080E7D80618F4F601B7BEE895C0E0D1E017
:107EE00062D089930C17E1F7F0E0CF16F0E7DF06D8
:107EF00018F0F601B7BEE89568D007B600FCFDCFD4
:107F0000A601A0E0B1E02C9130E011968C91119780
:107F100090E0982F8827822B932B1296FA010C0160
:107F200087BEE89511244E5F5F4FF1E0A038BF0790
:107F300051F7F601A7BEE89507B600FCFDCF97BE46
:107F4000E89526C08437B1F42ED02DD0F82E2BD052
:107F50003CD0F601EF2C8F010F5F1F4F84911BD097
:107F6000EA94F801C1F70894C11CD11CFA94CF0C13
:107F7000D11C0EC0853739F428D08EE10CD085E9AC
:107F80000AD08FE07ACF813511F488E018D01DD067
:107F900080E101D065CF982F8091C00085FFFCCF94
:107FA0009093C60008958091C00087FFFCCF809118
:107FB000C00084FD01C0A8958091C6000895E0E648
:107FC000F0E098E1908380830895EDDF803219F02E
:107FD00088E0F5DFFFCF84E1DECF1F93182FE3DFCA
:107FE0001150E9F7F2DF1F91089580E0E8DFEE27F6
:047FF000FF270994CA
:027FFE00040479
:00000001FF
